:100000009FC000000C94010A0C94280AC1C0000093
:10001000BFC00000BDC00000BBC000000C94FC0FBE
:10002000B7C00000B5C00000B3C00000B1C0000000
:10003000AFC00000ADC00000ABC00000A9C0000010
:100040000C944F0AA5C000000C94280D0C945A0D76
:100050009FC000009DC000009BC0000099C0000030
:1000600097C0000095C0000008000000BE9224491F
:10007000123EABAAAA2ABECDCCCC4C3E00000080DA
:10008000BEABAAAAAA3E00000000BF000000803F4D
:100090000000000000084178D3BB4387D1133D190D
:1000A0000E3CC3BD4282AD2B3E68EC8276BED98F3A
:1000B000E1A93E4C80EFFFBE01C4FF7F3F0000007E
:1000C0000000005EBCE2613FDD83C29C7E20A3FD98
:1000D0001F41009D23BE46DB65F88C11AF32CA5725
:1000E000E97400000008000201000003040700009A
:1000F00000000000000001020408102040800102FE
:10010000040810200102040810200404040404045C
:1001100004040202020202020303030303030000B9
:100120000000230026002900000000002500280010
:100130002B0000000000240027002A0002007F0D91
:1001400011241FBECFEFD8E0DEBFCDBF11E0A0E08D
:10015000B1E0E4EDFAE202C005900D92A633B107DA
:10016000D9F722E0A6E3B1E001C01D92A23AB2079E
:10017000E1F710E0C0EAD0E004C02197FE010E9440
:100180003214CF39D107C9F70E94CF100C946815EB
:1001900037CF6F927F928F929F92AF92BF92CF9202
:1001A000DF92EF92FF920F931F93CF93DF93CDB720
:1001B000DEB7F02E9C2D30E02830310511F424E01C
:1001C00030E0992339F0913041F0923049F002E06B
:1001D00010E008C00AE010E005C000E110E002C035
:1001E00008E010E081112AC1F1101AC0249FC0015B
:1001F000259F900D349F900D1124AC018CE491E06B
:10020000DF91CF911F910F91FF90EF90DF90CF90F2
:10021000BF90AF909F908F907F906F900C94AE0D99
:10022000C4016A01B72E962EBC018CE491E00E94B5
:10023000ED0DE1101DC0692C7B2CC60CD71CC6141B
:10024000D70409F4FBC0E1E0A801FE120AC0F301E3
:1002500060818CE491E00E944B0E8FEF681A780A5F
:10026000EECFF30160818CE491E00E94510EF5CF56
:10027000F1E0EF1221C0692C7B2CC114D10409F4E8
:10028000DDC0F1E0FF120FC0F30160817181A801B0
:100290008CE491E00E94610E81E0C81AD108E2E08E
:1002A0006E0E711CEACFF30160817181A8018CE4AC
:1002B00091E00E94660EF0CFF2E0EF1225C0692CAB
:1002C0007B2CC114D10409F4B9C0F1E0FF1211C0B4
:1002D000F301408151816281738198018CE491E046
:1002E0000E943F0E81E0C81AD108E4E06E0E711C36
:1002F000E8CFF301408151816281738198018CE4E0
:1003000091E00E94760EEECFF3E0EF1224C0692C4C
:100310007B2CC60CD71C6C147D0409F48FC0E1E063
:10032000FE120EC0F3016081062E000C770BA801AF
:100330008CE491E00E94CB0E8FEF681A780AEBCF25
:10034000F3016081062E000C770BA8018CE491E08C
:100350000E94D10EF1CFF4E0EF1221C0692C7B2C6A
:10036000C114D10409F46AC0F1E0FF120FC0F30117
:1003700060817181A8018CE491E00E94CB0E81E044
:10038000C81AD108E2E06E0E711CEACFF301608159
:100390007181A8018CE491E00E94D10EF0CFF5E0CC
:1003A000EF1225C0692C7B2CC114D10409F446C07E
:1003B000F1E0FF1211C0F30140815181628173812C
:1003C00098018CE491E00E94860E81E0C81AD10861
:1003D000E4E06E0E711CE8CFF3014081518162812F
:1003E000738198018CE491E00E94E10EEECFF6E07B
:1003F000EF1224C0092D1B2DB12CC114D104F1F032
:10040000E1E0FE1210C0F8014081518162817381E8
:1004100095018CE491E00E94B80F81E0C81AD108E0
:100420000C5F1F4FEACFF8014081518162817381D7
:1004300095018CE491E00E94B90FEFCFDF91CF914D
:100440001F910F91FF90EF90DF90CF90BF90AF90F2
:100450009F908F907F906F9008951F93CF93DF931D
:10046000182F8EE090E00E94AC0DEC01612FD7D3E5
:10047000D0933901C093380186E190E00E94AC0D21
:10048000EC0160913801709139013ED0D093370171
:10049000C0933601CE01DF91CF911F91E5C18091CC
:1004A0003601909137013ED160E080913601909104
:1004B00037017FC280913801909139010E94AD0DC2
:1004C00080913601909137010C94AD0DFB01808134
:1004D000883261F028F4803149F0823229F406C074
:1004E0008B3321F0823411F080E0089581E008958B
:1004F000FC017187608716821782108289E08383EE
:1005000081E0848385830895CF93DF93EC01F0DF4E
:100510001D8A1C8A1982DF91CF910895CF93DF93B2
:10052000EB0167E0CE011ED491E02F81281390E00B
:10053000892FDF91CF910895EF92FF920F931F9330
:10054000CF93DF938C017B01D42FFC0180859185B3
:100550005AD3C0E041E0B701F8018085918580D38E
:10056000882351F0DC1305C0B701C801D7DF811122
:1005700004C0CF5FDC1770F780E0DF91CF911F914F
:100580000F91FF90EF900895EF92FF920F931F93BA
:10059000CF93DF938C01EB017A01FC01808591857B
:1005A00031D28823F1F0BE01F801808591850BD30B
:1005B00040E06EEBF80180859185B7D2E701F9E064
:1005C000EF0EF11CF80180859185E2D28993CE155A
:1005D000DF05C1F7F8018085918514D291E0813063
:1005E00009F090E0892FDF91CF911F910F91FF903B
:1005F000EF9008950F931F93CF93DF93EC018B013E
:1006000088859985FFD1B80188859985DCD240E03D
:1006100064EB8885998589D2888599855ED2182F63
:1006200088859985EFD181E0111180E0DF91CF912C
:100630001F910F910895FC01808591854ED291E024
:10064000813009F090E0892F0895FC012181222357
:1006500021F060E082810C94CB0B0895FC01218194
:10066000222321F061E082810C94CB0B08958F92BC
:100670009F92AF92BF92CF92DF92EF92FF920F9331
:100680001F93CF93DF93EC016950633048F4E62F5A
:10069000F0E0EE0FFF1FE45FFE4F0081118102C00A
:1006A0000EEE12E08D818823D9F08881811118C067
:1006B00040D74B015C016801110FEE08FF08CE0125
:1006C000BADF811122C035D7DC01CB018C199D091D
:1006D000AE09BF0988159905AA05BB0580F315C0A9
:1006E000CE01B3DFB801110F880B990B53D7CE01A0
:1006F000DF91CF911F910F91FF90EF90DF90CF90FE
:10070000BF90AF909F908F90A9CFDF91CF911F9115
:100710000F91FF90EF90DF90CF90BF90AF909F90A0
:100720008F900895CF93DF93EC01888599856AD1E6
:100730008885998565D2488164E488859985F5D155
:100740008C81882329F06B81CE01DF91CF918FCFEF
:10075000DF91CF910895FA01218130E0C901982FEE
:100760008827990F990F990F208148E0249F9001C5
:100770001124282B392BDB018C918031C1F4678146
:1007800070E08681AB01481B5109CA019695982FEC
:100790008827979587950E94DF1360527109207F03
:1007A00053E0220F331F5A95E1F7260F371FC90177
:1007B0000895FB01460F571FE417F50729F08191B3
:1007C0008823D1F380E0089581E008950F931F936B
:1007D000CF93DF938C01EA01D7DE882369F049E0EB
:1007E00050E0BE01C801E5DF811106C068E0CE011E
:1007F000B9D291E02885281390E0892FDF91CF911D
:100800001F910F910895CF93DF93CDB7DEB729974E
:100810000FB6F894DEBF0FBECDBFFB0120812031A3
:10082000C9F0AE014F5F5F4FD1DF882389F08D8122
:100830008F3361F020F48F3159F489E00CC08F358B
:1008400019F08F3739F004C08BE005C08AE003C08F
:1008500080E001C08CE029960FB6F894DEBF0FBE91
:10086000CDBFDF91CF910895FF920F931F93CF9348
:10087000DF93CDB7DEB728970FB6F894DEBF0FBE73
:10088000CDBF8C01FC0180859185BDD1F801168218
:10089000178241E0BE016F5F7F4FF801808591852F
:1008A000DFD18823C1F1BE016F5F7F4FC80136DE03
:1008B000882379F3F8018081811107C0BE016F5F41
:1008C0007F4FC80197DE811122C0F801F380BE017D
:1008D0006F5F7F4FC80197DF8F1518F4F801838190
:1008E00005C0BE016F5F7F4FC8018DDFF8018383B4
:1008F00086818F5F8683BE016F5F7F4FC801E6DD13
:10090000882339F2F80187818F5F8783C2CF81E026
:10091000F8018083DACF28960FB6F894DEBF0FBEB9
:10092000CDBFDF91CF911F910F91FF900895EF926E
:10093000FF920F931F93CF93DF93CDB7DEB7299725
:100940000FB6F894DEBF0FBECDBF8C017B01AE01A8
:100950004F5F5F4F3BDF882339F0AE014F5F5F4F42
:10096000B701C801F8DE02C080E894EE29960FB600
:10097000F894DEBF0FBECDBFDF91CF911F910F91D5
:10098000FF90EF900895D3DF813824EE920764F052
:10099000BC01990F880B990B0E94031220E030E0F4
:1009A00040E05CE30C94FC1260E070E08EEF92ECAF
:1009B00008950F931F93CF93DF93CDB7DEB728979A
:1009C0000FB6F894DEBF0FBECDBF8C01462FBE011F
:1009D0006F5F7F4FB1DD882331F0BE016F5F7F4FC6
:1009E000C801D1DF04C060E070E08EEF92EC289681
:1009F0000FB6F894DEBF0FBECDBFDF91CF911F9130
:100A00000F910895FF920F931F93CF93DF93FC01F3
:100A1000F080C181D281F89489810F2D00958023C7
:100A2000898378941DE7115009F182E090E0EBD5BD
:100A300088818F21C1F3F8948A8180238A838981F8
:100A40008F298983789480EE91E0DDD5F8948981AF
:100A50000823098386E490E0D6D58881F82211E046
:100A600009F010E078948AE991E0CDD5812FDF91EB
:100A7000CF911F910F91FF9008951F93CF93DF9314
:100A8000FC011081C181D281812F809560FF11C04E
:100A9000F8949A8189238A838981812B89838AE0CA
:100AA00090E0B1D58A81182B1A83789487E390E07F
:100AB00010C0F8949A8189238A838981812B898344
:100AC00081E490E0A0D58A81182B1A83789485E080
:100AD00090E0DF91CF911F9196C50F931F93CF9315
:100AE000DF93FC010081C181D281F8948981802B40
:100AF00089838A81102F109581238A8383E090E077
:100B000082D58981182319838AE090E07CD5C88139
:100B1000789485E390E077D5C02381E009F480E004
:100B2000DF91CF911F910F910895DF92EF92FF9285
:100B30000F931F93CF93DF93EC01D62EE42E08E0A2
:100B400010E0FF24F39461E08D2D8F2109F460E023
:100B5000CE0193DFFF0C01501109A9F7E11010C07D
:100B6000F894E981FA819181888180958923818334
:100B7000E981FA81928188818095892382837894A2
:100B8000DF91CF911F910F91FF90EF90DF9008952B
:100B9000EF92FF920F931F93CF93DF937C0108E0B6
:100BA00010E0C0E0D1E0C70198DF8111CD2BDD0F4F
:100BB00001501109C1F78C2FDF91CF911F910F9137
:100BC000FF90EF900895EF92FF920F931F93CF93B2
:100BD000DF938C017B0140E065E5A7DFE70188E05A
:100BE000E80EF11C699140E0C8019FDFCE15DF05DA
:100BF000C9F7DF91CF911F910F91FF90EF9008956A
:100C000040E06CEC92CFFC01138615861486DC0163
:100C10001B9633961E92AE17BF07E1F708951F93F8
:100C2000CF93DF93EC01162F60E0812F78D5612FF1
:100C300070E0FB01EA50FF4FE491E883FB01E65FBF
:100C4000FE4FE491F0E0EE0FFF1FE25EFE4F859154
:100C500094919A838983CE01DF91CF911F91D3CF55
:100C6000BF92CF92DF92EF92FF920F931F93CF9399
:100C7000DF93EC016B01142F8D85811104C0CE012F
:100C8000C1DE811105C01B861D861C8680E060C008
:100C900040E0112311F060EF01C06CEECE0145DFA2
:100CA00001E0E12CB12C11E0CE0117DFF82ECE01CE
:100CB00014DF91E0F91203C08130B1F433C02E2D5E
:100CC00030E0F8121BC08B85181738F4FE01E20FD4
:100CD000F31F8381802341F402C0181729F0F12CFF
:100CE000193058F41C8709C0FE01EE0DF11D8381F7
:100CF000802B8383FF24F39409C0B12EFE01E20F01
:100D0000F31F9381802F8095892383836F2DCE01DC
:100D1000B4DE1F5F000F11F4E39401E087E08E154D
:100D200008F0C2CF113408F4AECFBB86B11002C0B8
:100D300081E08D878B81882309F4A5CFDE0113968E
:100D4000F6012B968D918193CA17DB07D9F781E0C5
:100D5000DF91CF911F910F91FF90EF90DF90CF9097
:100D6000BF900895DC0180E0615098F02D91982F9C
:100D70009227E92FEF70F0E0EE53FF4F2491929508
:100D80009F70E92FF0E0EE52FF4FE491822F8E2703
:100D9000EBCF08950895CF93DF93882331F0EB01D3
:100DA000815077D49983888303C0FB01118210821C
:100DB000DF91CF910895089508950F931F938B01AC
:100DC0009C0183E036952795179507958A95D1F76D
:100DD000F801E65CFE4F2081422F50E0E62FE770DD
:100DE00021E030E002C0220F331FEA95E2F724230E
:100DF0003523232B19F0CB01019602C080E090E04F
:100E00001F910F9108950F931F938B019C0183E015
:100E100036952795179507958A95D1F7677081E0E4
:100E200090E001C0880F6A95EAF7F801E65CFE4F92
:100E3000452B21F480959081892302C09081892BD4
:100E400080831F910F910895CF92DF92EF92FF92CE
:100E5000CF93DF936B017C0160E08EE0C816D10474
:100E6000E104F10418F48EE08C0D01C08C2D57D4F0
:100E7000E6012196AE01C701B601C5DFCE01DF91C3
:100E8000CF91FF90EF90DF90CF9008958F929F9237
:100E9000AF92BF92CF92DF92EF92FF92CF93DF9308
:100EA000EC01688179818A819B812DE133EF41E0FA
:100EB00050E00E94F21349015A019B01AC01A7EADC
:100EC000B1E40E9414146B017C01A4E1BBE0A50114
:100ED00094010E941414C616D706E806F90630F4E9
:100EE00021E0C21AD108E10820E8F20AC61AD70A9E
:100EF000E80AF90AC882D982EA82FB82688179818C
:100F00008A819B810E94011220E030E040E050E3A2
:100F10000E94FC12DF91CF91FF90EF90DF90CF9075
:100F2000BF90AF909F908F9008958F929F92AF92B5
:100F3000BF92CF92DF92EF92FF92CF93DF93EC01BB
:100F4000CE01A4DF9B01AC010E94051120E030E03E
:100F500040E85FE30E9404116B017C01CE0196DF43
:100F60009B01AC010E94051120E030E040E85FE306
:100F70000E9404119B01AC010E94FC124B015C0118
:100F8000A7019601C701B6010E94FC12A5019401B8
:100F90000E9405114B015C0120E030E040E85FE376
:100FA0000E94B312181664F2C501B4010E94BC126B
:100FB00020E030E040E050EC0E94FC12A5019401DA
:100FC0000E946D110E9463139B01AC01C701B60121
:100FD0000E94FC12DF91CF91FF90EF90DF90CF90B5
:100FE000BF90AF909F908F9008958F929F92AF92F5
:100FF000CF92DF92EF92FF920F931F93CF93DF93E5
:10100000CDB7DEB72E970FB6F894DEBF0FBECDBFBB
:1010100020E030E040E85FE36091410270914202DD
:1010200080914302909144020E946911882361F0EB
:1010300080E090E0A0E8BFE38093410290934202F9
:10104000A0934302B09344028091470290914802DA
:10105000B2DE6091490270E080E090E0AEDE9093F5
:1010600048028093470243E050E0BE01635F7F4F38
:1010700092DE20E030E040E85FE360915002709142
:10108000510280915202909153020E94691188236B
:1010900061F080E090E0A0E8BFE38093500290937D
:1010A0005102A0935202B0935302F9D96B017C0113
:1010B00020E030E0A9016091230270912402809128
:1010C0002502909126020E946911882341F0109216
:1010D00023021092240210922502109226026D859E
:1010E0007E8580E090E00E94011220E030EC4FE726
:1010F00054E40E946D1169837A838B839C83809171
:10110000940290919502A0919602B09197028D83DE
:101110009E83AF83B887C986DA86EB86FC866091AA
:101120003702709138028091390290913A020E9400
:10113000D511C62E60912F0270913002809131023C
:10114000909132020E94D511E62E60913302709187
:10115000340280913502909136020E94D511062FFB
:1011600060912B0270912C0280912D0290912E02A1
:101170000E94D511162F609127027091280280914C
:10118000290290912A020E94D511862F812C912C40
:1011900092E0A92E212F43E050E0BE016F5F7F4F08
:1011A0000E94C90088E992E0C0DE609394027093C7
:1011B000950280939602909397022E960FB6F8941C
:1011C000DEBF0FBECDBFDF91CF911F910F91FF907A
:1011D000EF90DF90CF90AF909F908F9008954F92B7
:1011E0005F926F927F92AF92BF92CF92DF92EF9217
:1011F000FF921F93CF93DF93CDEFD1E01EAEE4E5D6
:10120000F2E022E3208393E39093550284E38093FA
:10121000560285E38093570286E38093580287E362
:101220008093590288E380935A0289E380935B029A
:1012300081E380935C0230E330935D0280935E0231
:1012400080935F0280936002209361028093620228
:1012500090936302F0934602E093450284E080930A
:101260004902412C512C80E8682E8FE3782E409261
:10127000410250924202609243027092440290E412
:10128000A92E92E0B92EF5011082C12CD12C760145
:10129000C394C0923C02D0923D02E0923E02F09292
:1012A0003F0264E070E080E090E0CEDD9093480281
:1012B0008093470220E030E0A90160E070E06ADD41
:1012C00011E0F501108310924A02409250025092B0
:1012D00051026092520270925302C0924B02D0921D
:1012E0004C02E0924D02F0924E0287E0B6D8109385
:1012F0004F0218821EA21FA218A619A6C982DA825E
:10130000EB82FC821AA61BA61CA61DA680E090E01C
:10131000A0E8B0E48EA79FA7A8ABB9AB80E090E0AF
:10132000A0ECB0E48AAB9BABACABBDAB1EAA1FAAD2
:1013300018AE19AE1AAE1BAE1CAE1DAE1D8382E8F0
:1013400097EBA1E3B4E48093980290939902A09361
:101350009A02B0939B0288E992E0E7DD60939402E1
:10136000709395028093960290939702DF91CF91AC
:101370001F91FF90EF90DF90CF90BF90AF907F9044
:101380006F905F904F90089580913B02811118C03B
:1013900081E080933B0280913C0290913D02A091BC
:1013A0003E02B0913F020197A105B10549F4809139
:1013B0004002882329F08091470290914802FCDC8A
:1013C00080914A02811113C081E080934A0280918A
:1013D0004B0290914C02A0914D02B0914E020197A8
:1013E000A105B10521F480914F02811163D880914C
:1013F000FD01811103C081E08093FD0108950895EE
:1014000008951F920F920FB60F9211242F933F93BE
:101410004F935F936F937F938F939F93AF93BF93FC
:10142000EF93FF93E0910601F09107010995FF9179
:10143000EF91BF91AF919F918F917F916F915F914C
:101440004F913F912F910F900FBE0F901F901895C5
:101450001F920F920FB60F9211242F933F934F9329
:101460005F936F937F938F939F93AF93BF93EF930C
:10147000FF93E0910801F09109010995FF91EF9127
:10148000BF91AF919F918F917F916F915F914F919C
:101490003F912F910F900FBE0F901F9018951F92A4
:1014A0000F920FB60F9211242F933F938F939F9318
:1014B000AF93BF938091440190914501A091460163
:1014C000B09147013091430123E0230F2D3720F4E1
:1014D0000196A11DB11D05C026E8230F0296A11D8E
:1014E000B11D209343018093440190934501A09343
:1014F0004601B09347018091480190914901A09124
:101500004A01B0914B010196A11DB11D8093480184
:1015100090934901A0934A01B0934B01BF91AF91C1
:101520009F918F913F912F910F900FBE0F901F9021
:1015300018952FB7F89460914401709145018091FE
:101540004601909147012FBF08953FB7F8948091CD
:10155000480190914901A0914A01B0914B0126B5F3
:10156000A89B05C02F3F19F00196A11DB11D3FBFDB
:10157000BA2FA92F982F8827820F911DA11DB11D69
:10158000BC01CD0142E0660F771F881F991F4A9565
:10159000D1F708958F929F92AF92BF92CF92DF9230
:1015A000EF92FF926B017C01D0DF4B015C01C11413
:1015B000D104E104F104F1F022DFC7DFDC01CB014B
:1015C00088199909AA09BB09883E9340A105B1056C
:1015D00070F321E0C21AD108E108F10888EE880E04
:1015E00083E0981EA11CB11CC114D104E104F104D4
:1015F00021F7DDCFFF90EF90DF90CF90BF90AF90BD
:101600009F908F9008958230910538F0880F991F30
:10161000880F991F05970197F1F70895789484B57D
:10162000826084BD84B5816084BD85B5826085BDDE
:1016300085B5816085BDEEE6F0E0808181608083C4
:10164000E1E8F0E0108280818260808380818160A7
:101650008083E0E8F0E0808181608083E1EBF0E06E
:10166000808184608083E0EBF0E080818160808312
:10167000EAE7F0E0808184608083808182608083FB
:101680008081816080838081806880831092C10026
:1016900008958E3008F08E5020910A0190E4299F21
:1016A000900111248770822B80937C0080917A00B6
:1016B000806480937A0080917A0086FDFCCF8091CF
:1016C00078002091790090E0922B0895833081F08A
:1016D00028F4813099F08230A1F008958730A9F084
:1016E0008830B9F08430D1F4809180008F7D03C0C0
:1016F000809180008F7780938000089584B58F77E4
:1017000002C084B58F7D84BD08958091B0008F772D
:1017100003C08091B0008F7D8093B0000895CF9377
:10172000DF9390E0FC01EA50FF4F2491FC01E65F5B
:10173000FE4F8491882361F190E0880F991FFC018E
:10174000EE5CFE4FC591D491FC01E85DFE4FA59182
:10175000B491611109C09FB7F894888120958223C4
:101760008883EC912E230BC0623061F49FB7F8940C
:101770008881322F309583238883EC912E2B2C93F4
:101780009FBF06C08FB7F894E8812E2B28838FBFA8
:10179000DF91CF9108951F93CF93DF93282F30E0EF
:1017A000F901EE51FF4F8491F901EA50FF4FD491B6
:1017B000F901E65FFE4FC491CC23B9F0162F8111D9
:1017C00085DFEC2FF0E0EE0FFF1FE85DFE4FA591E7
:1017D000B4919FB7F894111104C08C91D095D8237F
:1017E00002C0EC91DE2BDC939FBFDF91CF911F9164
:1017F0000895FC01918D228D892F90E0805C9F4F90
:10180000821B91098F7399270895FC01918D828D18
:10181000981731F0828DE80FF11D858D90E00895C5
:101820008FEF9FEF0895FC01918D828D981761F0E5
:10183000828DDF01A80FB11D5D968C91928D9F5F07
:101840009F73928F90E008958FEF9FEF0895FC01B2
:10185000538D448D252F30E0842F90E0821B930B15
:10186000541710F0CF96089501970895FC01848DC8
:10187000DF01A80FB11DA35ABF4F2C91848D90E0BA
:1018800001968F739927848FA689B7892C93A08995
:10189000B1898C91837080648C93938D848D98131F
:1018A00006C00288F389E02D80818F7D80830895B2
:1018B000EF92FF920F931F93CF93DF93EC0181E0A0
:1018C000888F9B8D8C8D981305C0E889F98980815C
:1018D00085FD25C0F62E0B8D10E00F5F1F4F0F7397
:1018E0001127E02E8C8DE8120BC00FB607FCFACF43
:1018F000E889F989808185FFF5CFCE01B7DFF2CF86
:101900008B8DFE01E80FF11DE35AFF4FF0829FB768
:10191000F8940B8FEA89FB89808180620AC09FB7A7
:10192000F894EE89FF896083E889F9898081837062
:10193000806480839FBF81E090E0DF91CF911F9111
:101940000F91FF90EF900895CF93DF93EC01888D76
:101950008823C1F0EA89FB89808185FD05C0A889BB
:10196000B9898C9186FD0EC00FB607FCF5CF80813A
:1019700085FFF2CFA889B9898C9185FFEDCFCE0183
:1019800075DFE8CFDF91CF910895CF92DF92EF928C
:10199000FF921F93CF93DF93EC016A017B01122F1B
:1019A000E889F98982E080834115514E610571050E
:1019B000A9F060E079E08DE390E0A701960112D7ED
:1019C000DA01C9010197A109B109B695A7959795C3
:1019D00087959C01211580E13807A0F0E889F989F5
:1019E000108260E874E88EE190E0A7019601FAD6D3
:1019F000DA01C9010197A109B109B695A795979593
:101A000087959C01EC85FD853083EE85FF852083DD
:101A1000188EEC89FD891083EA89FB8980818061B9
:101A20008083EA89FB89808188608083EA89FB89D9
:101A3000808180688083EA89FB8980818F7D8083B3
:101A4000DF91CF911F91FF90EF90DF90CF9008959D
:101A50001F920F920FB60F9211242F938F939F9383
:101A6000EF93FF93E0915C01F0915D018081E09143
:101A70006201F091630182FD12C090818091650145
:101A80008F5F8F7320916601821751F0E09165019D
:101A9000F0E0E45BFE4F958F8093650101C080818B
:101AA000FF91EF919F918F912F910F900FBE0F900B
:101AB0001F9018951F920F920FB60F9211242F931B
:101AC0003F934F935F936F937F938F939F93AF93C6
:101AD000BF93EF93FF938CE491E0C8DEFF91EF9109
:101AE000BF91AF919F918F917F916F915F914F9136
:101AF0003F912F910F900FBE0F901F901895ECE41F
:101B0000F1E01382128288EE93E0A0E0B0E08483DB
:101B10009583A683B78388E191E09183808385ECE8
:101B200090E09587848784EC90E09787868780ECA7
:101B300090E0918B808B81EC90E0938B828B82EC98
:101B400090E0958B848B86EC90E0978B868B118E42
:101B5000128E138E148E08959AC631C7CF92DF92DB
:101B6000EF92FF920F931F93CF93DF936C017A0153
:101B70008B01C0E0D0E0CE15DF0581F0D8016D917A
:101B80008D01D601ED91FC910190F081E02DC6010F
:101B90000995892B11F02196EECF7E01C701DF91C7
:101BA000CF911F910F91FF90EF90DF90CF9008950C
:101BB0006115710579F0FB0101900020E9F731977B
:101BC000AF01461B570BDC01ED91FC910280F381C4
:101BD000E02D099480E090E00895EACFDC01ED91DA
:101BE000FC910190F081E02D099466E271E0E0CF74
:101BF0008F929F92AF92BF92EF92FF920F931F939B
:101C0000CF93DF93CDB7DEB7A1970FB6F894DEBFC1
:101C10000FBECDBF7C01FA01CB0119A2223008F41E
:101C20002AE08E010F5D1F4F822E912CA12CB12C2A
:101C3000BF01A5019401D6D5F901CA0101501109CE
:101C40006A3014F4605D01C0695CD8016C93232B89
:101C5000242B252B69F7B801C701AADFA1960FB67F
:101C6000F894DEBF0FBECDBFDF91CF911F910F91D2
:101C7000FF90EF90BF90AF909F908F9008952115A7
:101C8000310541F4DC01ED91FC910190F081E02DF2
:101C9000642F0994ADCF9A01462F50E060E070E0C8
:101CA000EECF0F931F93CF93DF93EC01F4DF8C0102
:101CB000CE019BDF800F911FDF91CF911F910F917C
:101CC00008959A01AB0160E070E0D9CF0F931F93A4
:101CD000CF93DF93EC01F5DF8C01CE0186DF800F1F
:101CE000911FDF91CF911F910F9108950F931F9333
:101CF000CF93DF93EC01C3DF8C01CE0176DF800F41
:101D0000911FDF91CF911F910F910895CF92DF9294
:101D1000EF92FF920F931F93CF93DF93211531051D
:101D200081F4DC01ED91FC910190F081E02D642FB4
:101D3000DF91CF911F910F91FF90EF90DF90CF90A7
:101D400009942A303105F1F477FF1BC06A017B0149
:101D5000EC016DE243DF8C0144275527BA014C1991
:101D60005D096E097F092AE0CE0142DF800F911FD5
:101D7000DF91CF911F910F91FF90EF90DF90CF9067
:101D800008952AE0DF91CF911F910F91FF90EF907E
:101D9000DF90CF902DCF9A01AB01770F660B770BB9
:101DA000B5CF0F931F93CF93DF93EC01F4DF8C013A
:101DB000CE011BDF800F911FDF91CF911F910F91FB
:101DC00008950F931F93CF93DF93EC019FDF8C0156
:101DD000CE010BDF800F911FDF91CF911F910F91EB
:101DE00008957F928F929F92AF92BF92CF92DF928F
:101DF000EF92FF920F931F93CF93DF938C016A01B1
:101E00007B01722E9A01AB01C701B6019AD48823D7
:101E100019F069E271E024C046015701E894B7F86F
:101E20002FEF3FEF4FE75FE7C501B4018AD481117F
:101E30000CC02FEF3FEF4FE75FE7C501B40149D278
:101E400018161CF46DE271E00BC02FEF3FEF4FE767
:101E50005FE4C701B60187D318168CF461E371E023
:101E6000C801DF91CF911F910F91FF90EF90DF900C
:101E7000CF90BF90AF909F908F907F9099CE2FEF93
:101E80003FEF4FE75FECC701B60123D287FDE6CFF6
:101E900020E030E0A901C701B6011BD287FF09C0CD
:101EA0006DE2C8019BDEEC01F7FAF094F7F8F094CC
:101EB00002C0C0E0D0E0B12C60E070E080E09FE3C1
:101EC0007B1439F020E030E040E251E406D2B394D4
:101ED000F7CFA701960199D16B017C0166D24B0126
:101EE0005C012AE0AB01BC01C80182DEC80FD91F2A
:101EF000772079F1C501B40184D29B01AC01C701FF
:101F0000B60182D16B017C016EE2C80167DEC80FA9
:101F1000D91F20E030E040E251E4C701B6016CD3A4
:101F20004B015C0142D26B017C014AE050E0C801E8
:101F3000C8DEC80FD91FB60180E090E062D29B01D5
:101F4000AC01C501B40160D16B017C017A947110C0
:101F5000E0CFCE01DF91CF911F910F91FF90EF90D5
:101F6000DF90CF90BF90AF909F908F907F9008951B
:101F700038CF0F931F93CF93DF93EC0132DF8C01A7
:101F8000CE0133DE800F911FDF91CF911F910F9112
:101F90000895813039F018F0823051F00895109290
:101FA0006E00089580916F008D7F80936F0008957B
:101FB000809170008D7F8093700081E08093B000ED
:101FC0008091B100887F84608093B1001092B3004B
:101FD0000895CF93C82F80910B01C81307C0ECE37D
:101FE000F1E084919FEF90930B0101C08FEFD1DF5F
:101FF00060E08C2FCF91CFCB1F920F920FB60F9234
:1020000011242F933F934F935F936F937F938F93FD
:102010009F93AF93BF93EF93FF938091EC019091C7
:10202000ED01A091EE01B091EF01892B8A2B8B2B52
:1020300051F19091E901E091EA01F091EB01808189
:10204000892780838091EC019091ED01A091EE01B0
:10205000B091EF01181619061A061B06BCF4809100
:10206000EC019091ED01A091EE01B091EF0101978B
:10207000A109B1098093EC019093ED01A093EE01C9
:10208000B093EF0103C080910B01A3DFFF91EF91AB
:10209000BF91AF919F918F917F916F915F914F9180
:1020A0003F912F910F900FBE0F901F90189540E811
:1020B00055E260E070E080E090E000C026E08CE453
:1020C00091E063CC0895CF92DF92EF92FF920F934D
:1020D0001F933BDA6093F0017093F1018093F2015A
:1020E0009093F3010091F4011091F5012091F60114
:1020F0003091F7016B017C01C01AD10AE20AF30AA0
:1021000040E4C41642E4D4064FE0E406F10440F192
:102110006093F4017093F5018093F6019093F701B9
:1021200027D013DA0091F4011091F5012091F60106
:102130003091F701DC01CB01801B910BA20BB30B9B
:1021400080349244AF40B10538F081E090E0909344
:10215000FC018093FB0104C01092FC011092FB0172
:1021600081E01F910F91FF90EF90DF90CF90089545
:102170008091FA0191E0980F9093FA01882339F049
:1021800021E030E03093FC012093FB0105C00E9468
:10219000F5078091FA0181508093FA010895CF9359
:1021A000DF931092F9011092F80138DA80DFC091C4
:1021B0001201D09113011982188211D883DF81E0B6
:1021C00028813981232B09F080E08093F8017894ED
:1021D0008091F801882389F081E028813981232BBF
:1021E00009F480E08093F9019091F90181E0911167
:1021F00080E08093F80167DFEBCFC6D8F89480E0E9
:1022000090E0DF91CF9108955058BB27AA270ED0B8
:1022100070C161D130F066D120F031F49F3F11F4EC
:102220001EF456C10EF4E095E7FB4CC1E92F72D1C4
:1022300080F3BA17620773078407950718F071F4E3
:102240009EF58AC10EF4E0950B2EBA2FA02D0B013E
:10225000B90190010C01CA01A0011124FF27591BEB
:1022600099F0593F50F4503E68F11A16F040A22FF1
:10227000232F342F4427585FF3CF46953795279562
:10228000A795F0405395C9F77EF41F16BA0B620B61
:10229000730B840BBAF09150A1F0FF0FBB1F661FA8
:1022A000771F881FC2F70EC0BA0F621F731F841FEB
:1022B00048F4879577956795B795F7959E3F08F011
:1022C000B3CF9395880F08F09927EE0F97958795D0
:1022D0000895D4D008F481E008950CD00AC102D149
:1022E00040F0F9D030F021F45F3F19F0EBC051110C
:1022F00034C1EEC00FD198F39923C9F35523B1F33C
:10230000951B550BBB27AA2762177307840738F064
:102310009F5F5F4F220F331F441FAA1FA9F333D0C3
:102320000E2E3AF0E0E830D091505040E695001C77
:10233000CAF729D0FE2F27D0660F771F881FBB1F33
:10234000261737074807AB07B0E809F0BB0B802D0D
:10235000BF01FF2793585F4F2AF09E3F510568F059
:10236000B1C0FBC05F3FECF3983EDCF386957795F8
:102370006795B795F7959F5FC9F7880F911D96955B
:10238000879597F90895E1E0660F771F881FBB1FB7
:10239000621773078407BA0720F0621B730B840B64
:1023A000BA0BEE1F88F7E0950895BCD088F09F57D0
:1023B00090F0B92F9927B751A0F0D1F0660F771F91
:1023C000881F991F1AF0BA95C9F712C0B13081F071
:1023D000C3D0B1E00895C0C0672F782F8827B85FB9
:1023E00039F0B93FCCF3869577956795B395D9F7D2
:1023F0003EF490958095709561957F4F8F4F9F4FDC
:102400000895E89409C097FB3EF4909580957095E7
:1024100061957F4F8F4F9F4F9923A9F0F92F96E930
:10242000BB279395F695879577956795B795F111A5
:10243000F8CFFAF4BB0F11F460FF1BC06F5F7F4F42
:102440008F4F9F4F16C0882311F096E911C0772354
:1024500021F09EE8872F762F05C0662371F096E85D
:10246000862F70E060E02AF09A95660F771F881F2C
:10247000DAF7880F9695879597F90895990F0008D0
:10248000550FAA0BE0E8FEEF16161706E807F90746
:10249000C0F012161306E407F50798F0621B730BE1
:1024A000840B950B39F40A2661F0232B242B252B62
:1024B00021F408950A2609F4A140A6958FEF811D05
:1024C000811D089597F99F6780E870E060E00895A6
:1024D0009FEF80EC089500240A941616170618063C
:1024E0000906089500240A94121613061406050618
:1024F0000895092E0394000C11F4882352F0BB0FA9
:1025000040F4BF2B11F460FF04C06F5F7F4F8F4F0B
:102510009F4F089557FD9058440F551F59F05F3F46
:1025200071F04795880F97FB991F61F09F3F79F0F5
:1025300087950895121613061406551FF2CF469577
:10254000F1DF08C0161617061806991FF1CF8695F9
:102550007105610508940895E894BB2766277727DD
:10256000CB0197F908958ADF08F48FEF08950EF0F4
:10257000ECC0AECF6894A6CFD5DFC8F39923D1F3D2
:10258000C6F3DF93CF931F930F93FF92C92FDD27DD
:1025900088232AF02197660F771F881FDAF720E03B
:1025A00030E040E85FEB9FE3883920F0803E30F078
:1025B00021968F772ADEE8E6F0E003C026DEE5E923
:1025C000F0E0D8D08B01BE01EC01FB2E6F577109F2
:1025D0007595771F880B990B16DF28E132E741E3E9
:1025E0005FE316D0AF2D9801AE01FF900F911F91C0
:1025F000CF91DF911BDE7DCF0BD07BCF6CDF28F03E
:1026000071DF18F0952309F05DCF62CF1124A5CFBB
:1026100081DFA0F3959FD1F3950F50E0551F629F86
:10262000F001729FBB27F00DB11D639FAA27F00D2B
:10263000B11DAA1F649F6627B00DA11D661F829F52
:102640002227B00DA11D621F739FB00DA11D621F37
:10265000839FA00D611D221F749F3327A00D611D54
:10266000231F849F600D211D822F762F6A2F112436
:102670009F5750408AF0E1F088234AF0EE0FFF1F89
:10268000BB1F661F771F881F91505040A9F79E3FC0
:10269000510570F017CF61CF5F3FECF3983EDCF34C
:1026A000869577956795B795F795E7959F5FC1F7FD
:1026B000FE2B880F911D9695879597F9089511F433
:1026C0000EF406CF42C02EDFD0F39923D9F3CEF318
:1026D0009F57550B87FF47D00024A0E640EA9001A2
:1026E00080585695979528F4805C660F771F881F51
:1026F00020F026173707480730F4621B730B840B52
:10270000202931294A2BA695179407942025312595
:102710004A2758F7660F771F881F20F026173707BC
:10272000480730F4620B730B840B200D311D411DE3
:10273000A09581F7B901842F9158880F96958795B8
:1027400008959CDE880B990B08959F3F31F09150BE
:1027500020F4879577956795B795880F911D969585
:10276000879597F9089591505040660F771F881FFD
:10277000D2F70895DF93CF931F930F93FF92EF92B9
:10278000DF927B018C01689405C0DA2EEF0140DFF7
:10279000FE01E894A5912591359145915591AEF3AF
:1027A000EF0144DDFE019701A801DA9479F7DF908B
:1027B000EF90FF900F911F91CF91DF91089597FBBC
:1027C000072E16F4009406D077FD08D037D007FC0A
:1027D00005D03EF4909581959F4F08957095619531
:1027E0007F4F0895A1E21A2EAA1BBB1BFD010DC04D
:1027F000AA1FBB1FEE1FFF1FA217B307E407F507B1
:1028000020F0A21BB30BE40BF50B661F771F881F8C
:10281000991F1A9469F760957095809590959B0122
:10282000AC01BD01CF01089523D0A59F900DB49FA9
:10283000900DA49F800D911D11240895AA1BBB1B10
:1028400051E107C0AA1FBB1FA617B70710F0A61BB0
:10285000B70B881F991F5A95A9F780959095BC01D1
:10286000CD010895EE0FFF1F0590F491E02D09941E
:10287000A29FB001B39FC001A39F700D811D1124C1
:10288000911DB29F700D811D1124911D08950F930C
:102890001F93CF93DF938230910510F482E090E094
:1028A000E091A002F091A10220E030E0A0E0B0E0D1
:1028B000309719F1408151810281138148175907DE
:1028C000C8F08417950769F4109731F012960C93AD
:1028D000129713961C9327C00093A0021093A10295
:1028E00022C02115310519F04217530718F49A0137
:1028F000BD01EF01DF01F801DBCF21153105F9F052
:10290000281B390B2430310580F48A819B816115A5
:10291000710521F0FB019383828304C09093A1028F
:102920008093A002FE01329644C0FE01E20FF31F25
:102930008193919322503109398328833AC02091A1
:102940009E0230919F02232B41F42091020130918D
:10295000030130939F0220939E0220910001309149
:1029600001012115310541F42DB73EB74091040115
:1029700050910501241B350BE0919E02F0919F02BE
:10298000E217F307A0F42E1B3F0B2817390778F046
:10299000AC014E5F5F4F2417350748F04E0F5F1FA5
:1029A00050939F0240939E028193919302C0E0E076
:1029B000F0E0CF01DF91CF911F910F910895CF9358
:1029C000DF93009709F481C0FC01329713821282D1
:1029D000A091A002B091A102109781F420813181D1
:1029E000820F931F20919E0230919F022817390772
:1029F00051F5F0939F02E0939E0267C0ED0120E045
:102A000030E0CE17DF0740F44A815B819E0141151B
:102A10005105F1F0EA01F5CFD383C28340815181A2
:102A2000840F951FC817D90759F488819981840F9D
:102A3000951F0296918380838A819B8193838283F1
:102A40002115310529F4F093A102E093A0023DC0C5
:102A5000E901FB83EA8349915991C40FD51FEC1713
:102A6000FD0761F480819181840F951F0296E90131
:102A700099838883828193819B838A83E0E0F0E05D
:102A800012968D919C911397009719F0FD01DC012E
:102A9000F7CF8D919C9111979D012E5F3F4F820F33
:102AA000931F20919E0230919F022817390769F4E5
:102AB000309729F41092A1021092A00202C0138252
:102AC0001282B0939F02A0939E02DF91CF9108954E
:042AD000F894FFCFA8
:102AD4000000A2028000000A000A01FF5E00BC00A0
:102AE40077019C0200000000580CAE0D270CA40CCA
:102AF400F90B130C050C0D0A006E616E00696E660D
:062B0400006F7666000080
:00000001FF
